:060000000A128A1100291A
:100200003E215C210313831206180F218618162144
:1002100006191D2186192421061E2B210429692176
:1002200006181029850A051A850108006921861813
:1002300017298503051A32210800692106191E298C
:10024000870A071A8701080069218619252987036B
:10025000071A382108006921061E2C2905080707FE
:10026000880008008501051485140515851508000A
:1002700087010714871407158715080003178316CD
:10028000031783168801890103138316031383164A
:100290000313831685018701880103138312031357
:1002A00083120313831285018701880106148614C3
:1002B0000615861506160800031383160F178F12EE
:1002C0000F120F1408003230A1006921A10B65291B
:0C02D00008009630A000A00B6B2908006D
:04400E00C430FF3F7C
:00000001FF
